:020000040800F2
:1000000000A400209D010008399D0008198C0008FB
:10001000559900087D0C0008F52E0108000000002D
:1000200000000000000000000000000001F60008D1
:10003000094600080000000051A0000835F600083D
:10004000B7010008B7010008B7010008B7010008B0
:10005000B7010008B7010008B7010008B7010008A0
:10006000B7010008B70100082D460008B7010008D5
:100070008D330008B7010008B7010008B701000878
:10008000B7010008B7010008B7010008B701000870
:10009000810C0008B7010008B701000839460008C4
:1000A000B7010008B7010008B7010008B701000850
:1000B000B701000841F7000855F70008B70100082C
:1000C000B7010008B7010008B7010008B701000830
:1000D000B7010008792C0108B7010008892C010834
:1000E000B7010008B7010008B7010008B701000810
:1000F000B7010008B7010008B7010008B701000800
:10010000B7010008B701000869F70008B701000847
:10011000B7010008B70100087DF7000891F7000853
:100120009D33000871440008814400089144000890
:10013000B7010008B7010008B7010008B7010008BF
:10014000910C0008B7010008B7010008B7010008CA
:10015000B7010008A1440008B1440008B52D01080A
:10016000B7010008B7010008B7010008B70100088F
:10017000B7010008B7010008B7010008000000003F
:10018000B7010008B7010008DFF80CD000F0B4FB9D
:10019000004800471D3D010800A400200648804794
:1001A00006480047FEE7FEE7FEE7FEE7FEE7FEE75C
:1001B000FEE7FEE7FEE7FEE72DF7000889010008ED
:1001C0002DE9F05F0546002092469B46884606468C
:1001D000814640241BE0284641464746224600F01F
:1001E0006CFA53465A46C01A914110D3114618462C
:1001F000224600F053FA2D1A67EB01084F462246BB
:100200000120002100F04AFA17EB00094E41201EA0
:10021000A4F10104DFDC484631462A464346BDE8E6
:10022000F09F40EA01039B0703D009E008C9121FB1
:1002300008C0042AFAD203E011F8013B00F8013BA0
:10024000521EF9D27047D2B201E000F8012B491ECC
:10025000FBD270470022F6E710B513460A46044663
:100260001946FFF7F0FF204610BD2DE9FE4F8046EE
:1002700081EA0300C00F0C46009021F0004123F0FA
:100280000045B8EB0200A94105D240462146904600
:100290001C460B46024623F00040104347D0270D72
:1002A000C7F30A00C3F30A510290401A0190402894
:1002B0006BDAC3F3130040F4801B0098924620B120
:1002C0000023D2EB030A63EB0B0B01985946C0F1F4
:1002D0004002504600F0E2F906460D4650465946A7
:1002E000019A00F0FAF910EB08006141002487EA56
:1002F000115284EAE7731A4340D0009A62B3019A1C
:10030000012A4FEA075215DC001B61EB02014FF096
:10031000004202EA0752CDE90042001C41F580117B
:1003200032462B4600F031FA03B0BDE8F08F40466C
:100330002146F9E7001B61EB0201001C41F5801327
:1003400000185B412018A2F5001747EB030140EAB3
:10035000D570B6196D4111E06D084FEA360645EAD1
:10036000C0754FEA0752001B61EB0201001C41F50A
:10037000801149084FEA30000019514132462B469E
:1003800003B0BDE8F04F00F0F1B900980122400041
:100390000023D0EB020263EBE073009821464FEAA2
:1003A000E074B8EB000061EB0401E9E783F000437F
:1003B0005BE781F0004158E72DE9FE4F81EA030435
:1003C00004F0004421F0004100944FF0000B23F0B2
:1003D000004350EA01045ED052EA03045BD0C3F349
:1003E0000A54C1F30A552C44A4F2F3340194A0FB3F
:1003F0000254C1F3130141F48011C3F3130343F416
:10040000801301FB024400FB034E840A970A44EA6E
:10041000815447EA8357A4FB076802958D0A05FBC0
:1004200007854FEA932C04FB0C542705029D4FEAE5
:10043000065847EA1637B5EB08056EEB070C870E32
:10044000920E47EA811742EA8312A7FB0201B6EB3C
:100450000B0164EB00042B0D43EA0C335E1844EBF4
:100460001C50DA465146E7FB0201C5F313044FEA7C
:100470000B3343EA14534FEA0432019C43EA060368
:10048000A4F10C040294009CCDE900B400F07DF9C5
:1004900003B0BDE8F08F00200146F9E72DE9F04DEB
:1004A00081EA030404F0004B21F0004514464FF0AC
:1004B000000A23F0004150EA050220D054EA01026C
:1004C0001DD0C5F30A570246C5F31303C1F3130049
:1004D000C1F30A5640F4801543F48013A7EB0608D5
:1004E000101BD64608F2FD3873EB050002D308F165
:1004F000010801E092185B41B8F1000F03DA002017
:100500000146BDE8F08D00204FF480110646844678
:100510000EE0171B73EB050705D3121B63EB0503F6
:1005200006434CEA010C49084FEA300092185B413F
:1005300050EA0107EDD152EA030012D082EA04002A
:1005400083EA0501084305D0101BAB4106D2012206
:10055000002306E000224FF0004302E06FF00102AA
:1005600053101AEB06004CEB085110EB0A0041EB5C
:100570000B01BDE8F04D00F0F9B830B5041E71F183
:10058000000404DB4FF00044404264EB0101141E00
:1005900073F1000405DB1C464FF00043524263EB4D
:1005A0000403801A994101D3012030BD002030BDE1
:1005B00030B5041E71F1000404DB4FF000444042EA
:1005C00064EB0101141E73F1000405DB1C464FF0BF
:1005D0000043524263EB0403101A8B4101D3012004
:1005E00030BD002030BD30B5041E71F1000404DBC5
:1005F0004FF00044404264EB0101141E73F100040B
:1006000005DB1C464FF00043524263EB0403801AA3
:10061000994101D2012030BD002030BD0EB5C10F7F
:1006200080EAE0700844CA07002140F233438DE8B5
:100630000E000A460B4600F0A8F803B000BD00F01B
:10064000004230F000400AD0C10D01F56071C0F3E6
:10065000160042EA0151C2084007114370470020CA
:100660000146704701F0004330B421F0004150EAE8
:10067000010206D00A0DA2F56072C1F31301002A2F
:1006800002DC30BC00207047440F44EAC104C100C2
:10069000E01830BC00EBC25000F031B8202A04DB77
:1006A000203A00FA02F1002070479140C2F1200385
:1006B00020FA03F3194390407047202A04DB203AC4
:1006C00021FA02F00021704721FA02F3D040C2F172
:1006D00020029140084319467047202A06DBCB17B9
:1006E000203A41FA02F043EAE07306E041FA02F3ED
:1006F000D040C2F1200291400843194670470029BA
:10070000A8BF7047401C490008BF20F00100704797
:1007100010B4B0FA80FC00FA0CF050EA010404BFF7
:1007200010BC704749B1CCF1200421FA04F411FA4D
:100730000CF118BF012121430843A3EB0C01CB1D91
:100740004FEA00614FEA102042BF002010BC704702
:1007500000EBC35010440029A4BF10BC7047401CDC
:10076000490008BF20F0010010BC704710B5141EEE
:1007700073F1000408DA401C41F1000192185B415A
:100780001A4301D120F0010010BD2DE9F04D924631
:100790009B4611B1B1FA81F202E0B0FA80F2203248
:1007A0009046FFF77BFF04460F4640EA0A0041EA05
:1007B0000B0153465A46084313D0114653EA010031
:1007C00019D0C8F140025046FFF777FF05460E46A4
:1007D000504659464246FFF761FF084305D00120C5
:1007E00004E020463946BDE8F08D0020054346EA86
:1007F000E0762C4337430A986305E40AA0EB08002F
:100800000022FD0A44EA47540A3002D5002001467E
:10081000E9E7010510196941DDE908450019694159
:10082000BDE8F04DA2E72DE9F04D00231A461B1A52
:100830008A4103DB00200146BDE8F08DC1F30A5276
:10084000C1F3130141F480154FF0000BD10702D121
:1008500000186D41521E0027044640F2FF11384631
:1008600001EB620A3E468046024600204FF48011AA
:10087000FFF723FFC2197141BB1846EB0100B4EB2F
:10088000030C75EB000C04D3E41A65EB0005174666
:100890000E46241908F101006D4180463428E3DD3D
:1008A000F91946EB0600091BA84103D24FF0FF32AD
:1008B000134601E0002213461BEB070046EB0A51EA
:1008C000BDE8F04DFFF752BF30B5041E71F10004D2
:1008D00004DB4FF00044404264EB0101141E73F14D
:1008E000000405DB1C464FF00043524263EB040357
:1008F0008B4208BF824230BD064C074D06E0E068DF
:1009000040F0010394E8070098471034AC42F6D356
:10091000FFF73EFCD8790108F87901080EB540F2DE
:10092000334102910021CDE900110A460B46FFF741
:100930002CFF03B000BD70B5C1F30A5201F00045B1
:100940000024C1F3130140F2FF3341F480119A42B5
:1009500001DA002070BD40F233439A42A2F23342E2
:1009600003DC5242FFF7A9FE00E090402C43F1D097
:10097000404270BD81B000208DF80300FFE79DF874
:100980000300032871DCFFE79DF8031040F25810C4
:10099000C2F2000000EB810292ED3D0A01EB810101
:1009A00000EB810090ED031A30EE410A9FED301A02
:1009B000B4EE410AF1EE10FA1BDDFFE79DF80310DB
:1009C00040F25810C2F2000000EB810191ED3D0AA7
:1009D0009FED281A30EE010A81ED3D0A9DF80310C3
:1009E00000EB810090ED390AB1EE400A80ED390A42
:1009F000FFE79DF8031040F25810C2F2000000EB30
:100A0000810292ED3D0A01EB810100EB810090ED46
:100A1000031A30EE410A9FED181AB4EE410AF1EEC6
:100A200010FA1BDAFFE79DF8031040F25810C2F2EB
:100A3000000000EB810191ED3D0A9FED101A30EEB0
:100A4000010A81ED3D0A9DF8031000EB810090ED55
:100A5000390AB1EE400A80ED390AFFE7FFE79DF859
:100A6000030001308DF8030089E701B0704700BF33
:100A70000000B442000034C30000B4C2000034439C
:100A800085B004900391029204990878497840EA6D
:100A90000120ADF80600BDF9060000EE100AB8EE20
:100AA000C00A40F21400C2F2000090ED001A20EEDD
:100AB000010A039981ED000A049A9178D27841EAFB
:100AC0000221ADF80610BDF9061000EE101AB8EEBE
:100AD000C00A90ED001A20EE010A039981ED010A87
:100AE000049A1179527941EA0221ADF80610BDF954
:100AF000061000EE101AB8EEC00A90ED001A20EEB3
:100B0000010A039880ED020A04988179C279007A7B
:100B1000000440EA0220084400909DED000AB8EE6F
:100B2000400A9FED041A20EE010A029880ED000AA7
:100B300005B0704700401C4284B0039002910192BE
:100B400003990878497840EA0120ADF80200BDF920
:100B5000020000EE100AB8EEC00A40F21800C2F21D
:100B6000000090ED001A20EE010A029981ED000AC2
:100B7000BDF9021000EE101AB8EEC00A9FED272A48
:100B800080EE020A9FED261A20EE010A019981EDFE
:100B9000000A039A9178D27841EA0221ADF8021056
:100BA000BDF9021000EE101AB8EEC00A90ED003A3E
:100BB00020EE030A029981ED010ABDF9021000EE50
:100BC000101AB8EEC00A80EE020A20EE010A01995E
:100BD00081ED010A039A1179527941EA0221ADF8B7
:100BE0000210BDF9021000EE101AB8EEC00A90ED26
:100BF000003A20EE030A029880ED020ABDF90200D5
:100C000000EE100AB8EEC00A80EE020A20EE010AD9
:100C1000019880ED020A04B0704700BF0000004751
:100C20000000FA4483B00290019102990878497853
:100C3000C00040EA5110ADF80200BDF90200B0F565
:100C4000806F07DBFFE7BDF80200A0F50060ADF89C
:100C50000200FFE7BDF9020000EE100AB8EEC00A7C
:100C6000B4EE001A20EE010AB3EE071A30EE010AC4
:100C7000019880ED000A03B070470000FFE7FEE72F
:100C800080B540F6B860C2F2000004F00BF980BDF8
:100C900080B540F6E060C2F2000004F003F980BDC8
:100CA00080B582B0ADF8060040F6C451C2F2000132
:100CB0002E20086000208860C860022008619DF82E
:100CC000070040F6C052C2F2000210709DF8060004
:100CD000507040F6B860C2F200006B4603F05CFE54
:100CE00002B080BD80B584B0ADF80E00ADF80C1038
:100CF000ADF80A20ADF8083040F6E851C2F2000124
:100D00002F20086000208860C860082008619DF8D6
:100D10000F0040F6DE52C2F2000210709DF80E0085
:100D200050709DF80D0090709DF80C00D0709DF8EB
:100D30000B0010719DF80A0050719DF80900907128
:100D40009DF80800D07140F6B860C2F2000001AB17
:100D500003F022FE04B080BD40F22C10C2F200006D
:100D600090ED000AB2EE081AB4EE410AF1EE10FA64
:100D700010DBFFE741F6AC00C2F2000000891E283C
:100D800008DBFFE740F6DC50C2F200000088C9280B
:100D900007DBFFE740F22C11C2F20001002088724D
:100DA00087E040F22C10C2F2000090ED000AB3EE92
:100DB000051AB4EE410AF1EE10FA10DDFFE740F239
:100DC0005810C2F2000090F81C01012807D1FFE77B
:100DD00040F22C11C2F200010220887268E040F259
:100DE0002C10C2F20000807A02281ED1FFE740F2E8
:100DF0002C10C2F2000090ED000AB2EE0E1AB4EE12
:100E0000410AF1EE10FA10DDFFE740F25810C2F28D
:100E1000000090F81C01012807D1FFE740F22C11D7
:100E2000C2F200010220887241E040F22C10C2F2AE
:100E3000000090ED000AB3EE021AB4EE410AF1EEA2
:100E400010FA0EDDFFE740F22C10C2F20000807AAB
:100E500038B9FFE740F22C11C2F20001012088727C
:100E600024E040F22C10C2F20000807A012815D153
:100E7000FFE740F22C10C2F2000090ED000AB2EE43
:100E80000E1AB4EE410AF1EE10FA07DDFFE740F268
:100E90002C11C2F200010120887206E040F22C11F0
:100EA000C2F2000100208872FFE7FFE7FFE7FFE7DB
:100EB000FFE740F6DC51C2F20001088801300880EB
:100EC00040F22C10C2F20000807A80B9FFE741F6B0
:100ED000DE70C2F20000408900EE100AB8EE400A4F
:100EE00040F24C00C2F2000080ED000A3EE040F209
:100EF0002C10C2F20000807A012824D1FFE741F6CD
:100F0000DE70C2F2000040890F3000EE100AB8EE29
:100F1000C00A40F24C00C2F2000080ED000A90EDE1
:100F2000000A9FED131AB4EE410AF1EE10FA09DD42
:100F3000FFE740F24C01C2F200010020C4F2C820D9
:100F40000860FFE711E040F22C10C2F20000807A46
:100F5000022809D1FFE740F24C01C2F20001002053
:100F6000C4F248300860FFE7FFE7FFE7704700BFC3
:100F70000000C84270B586B0059001F0C7FFFFE7DA
:100F800040F25740C2F2000003F040FBFFF7E4FEDE
:100F900002F0B8F801F00AFF00F0E2FA40F258104F
:100FA000C2F20000049012F039F8DDF810C09CED98
:100FB000350ABDEEC00A10EE100A9CED360ABDEEF1
:100FC000C00A10EE101A9CED370ABDEEC00A10EEF2
:100FD000102A9CED380ABDEEC00A10EE103A9CEDC6
:100FE000313A9CED322A9CED331A9CED340ABDEE69
:100FF000C33A13EE10CABDEEC22A12EE104ABDEE7D
:10100000C11A11EE105ABDEEC00A10EE106AEE467B
:10101000CEF80C60CEF80850CEF80440CEF800C0F0
:1010200002F0D4F8012012F0F5FEA9E780B584B0F3
:101030000390FFE740F20B50C2F2000000F21121D2
:1010400040F27822C2F2000209F034F8012816D1E9
:10105000FFE740F27820C2F200000188090409BAD3
:10106000019181788DF80B1001999DF80B20C31C1C
:1010700040F6B860C2F2000000F006F8FFE7012079
:1010800012F0C8FED6E7000080B586B00590049146
:101090008DF80F200293049840F69051C2F200019F
:1010A000086000208860C8609DF80F0008610598FE
:1010B000029A01AB03F070FC06B080BD86B0DDF88B
:1010C00030C0DDF82CC0DDF828C0DDF824C0DDF824
:1010D00020C0DDF81CC0DDF818C005900491039213
:1010E000029300200190FFE701990020022900905F
:1010F00008DCFFE704980199405C002818BF012034
:101100000090FFE70098C00758B1FFE70498019AE4
:10111000805C0599891A8870FFE701980130019079
:10112000E2E70599D1F80320D1F80730D1F80B0098
:1011300042F03802C1F80730C1F80320C1F80B00B3
:10114000DDF80CC00599D1F80320D1F80730D1F8AB
:101150000B006CF30202C1F80730C1F80320C1F89C
:101160000B00DDF808C00599D1F80320D1F807304D
:10117000D1F80B000CF00F0C22F4707242EA8C12C2
:10118000C1F80730C1F80320C1F80B00DDF818C022
:101190000599D1F80320D1F80730D1F80B000CF0F5
:1011A0000F0C22F4705242EA8C22C1F80730C1F8C9
:1011B0000320C1F80B00DDF824C00599D1F80330F5
:1011C000D1F80720D1F80B006CF30902C1F8033005
:1011D000C1F80720C1F80B00DDF828C00599D1F847
:1011E0000330D1F80720D1F80B006FF3DF2C6FF339
:1011F000942242EA8C22C1F80330C1F80720C1F8DA
:101200000B00DDF82CC00599D1F80330D1F8072088
:10121000D1F80B006FF35F5242EA4C52C1F8033031
:10122000C1F80720C1F80B00DDF81CC00599D1F802
:101230000320D1F80730D1F80B006FF35F2C6FF368
:10124000963242EA8C32C1F80730C1F80320C1F867
:101250000B00DDF820C00599D1F80320D1F8073044
:10126000D1F80B006FF3DF5242EACC52C1F80730DD
:10127000C1F80320C1F80B0000200190FFE701989E
:10128000089988420ED2FFE70C9800780599019AD8
:101290001144C8730C9801300C90FFE7019801309D
:1012A0000190ECE706B070472DE9F047B6B0DDF8E5
:1012B0001491DDF81081439F429E419D409CDDF8D2
:1012C000FCE0DDF8F8C0CDF8A490CDF8A080279719
:1012D000269625952494CDF88CE0CDF888C02193EE
:1012E00020921F911E902AA807901EA92D220892D5
:1012F000FEF797FF0799089A4FF6FF70ADF83E008A
:1013000011A8FEF78EFF0DA81090A5208DF83400CF
:101310003320ADF8350040F63010C2F200000078FE
:101320008DF8370010980421FF2203F0E9FA8DF8B8
:10133000380040F20130ADF839004FF48870ADF854
:101340002C0041F6DE70C2F200000078012808D1BE
:10135000FFE70120ADF82E0040F20110ADF830009B
:1013600076E041F6DE70C2F200000078652808D110
:10137000FFE76520ADF82E0040F26510ADF83000B3
:1013800065E041F6DE70C2F200000078032808D163
:10139000FFE70320ADF82E0040F20310ADF8300057
:1013A00054E041F6DE70C2F200000078672808D1F0
:1013B000FFE76720ADF82E0040F26710ADF830006F
:1013C00043E041F6DE70C2F200000078042808D144
:1013D000FFE70420ADF82E004FF48270ADF8300026
:1013E00032E041F6DE70C2F200000078682808D1D1
:1013F000FFE76820ADF82E004FF4B470ADF8300070
:1014000021E041F6DE70C2F200000078052808D124
:10141000FFE70520ADF82E0040F20510ADF83000D2
:1014200010E041F6DE70C2F200000078692808D1B1
:10143000FFE76920ADF82E0040F26910ADF83000EA
:10144000FFE7FFE7FFE7FFE7FFE7FFE7FFE7FFE76C
:101450000DA8019010901098BDF83E20072103F0D0
:101460001BFAADF83E000BA8029010901098BDF842
:101470003E20062103F010FAADF83E0011A80490BA
:1014800010901098BDF83E202D21039103F004FA2E
:10149000019B0299039A84460498ADF83EC040F23D
:1014A000C42CC2F2000CCDF814C0CDF828C04FF007
:1014B000000CCDF818C08DF827C01093DDF828C0B7
:1014C000DDF840E0DEF80030DEF803E0CCF803E0C1
:1014D000CCF800300A9B07330A939DF82730073376
:1014E0008DF8273010910A9B1099B1F804C0A3F829
:1014F00004C0096819600A9906310A919DF82710FD
:1015000006318DF8271010900A981099FEF789FE81
:1015100005980A992D310A919DF827102D318DF8E3
:1015200027100DF13E0110910A9A10990988118037
:101530000A9902310A919DF8271002318DF827107F
:1015400040F63012C2F200021178013111709DF89C
:10155000271011F027FB069836B0BDE8F087000091
:1015600080B5ADF51C7D40F24C00C2F2000090ED5C
:10157000000A9FEDDD1AB4EE410AF1EE10FA08D12F
:10158000FFE746F2D001C2F200014FF07E50086042
:101590004EE240F24C00C2F2000090ED000A9FEDD6
:1015A000D31AB4EE410AF1EE10FA0AD1FFE746F27F
:1015B000D001C2F200014CF6CD40C3F68C70086039
:1015C00035E240F24C00C2F2000090ED000A9FEDBF
:1015D000C81AB4EE410AF1EE10FA0AD1FFE746F25A
:1015E000D001C2F2000149F69A10C3F69970086062
:1015F0001CE240F24C00C2F2000090ED000A9FEDA8
:10160000BD1AB4EE410AF1EE10FA0AD1FFE746F234
:10161000D001C2F2000146F26660C3F6A67008600F
:1016200003E240F24C00C2F2000090ED000A9FED90
:10163000B21AB4EE410AF1EE10FA0AD1FFE746F20F
:10164000D001C2F2000143F23330C3F6B370086038
:10165000EAE140F24C00C2F2000090ED000A9FED7A
:10166000A71AB4EE410AF1EE10FA08D1FFE746F2EC
:10167000D001C2F200014FF07F500860D3E140F288
:101680004C00C2F2000090ED000A9FED9D1AB4EEEE
:10169000410AF1EE10FA0AD1FFE746F2D001C2F298
:1016A00000014CF6CD40C3F6CC700860BAE140F2C0
:1016B0004C00C2F2000090ED000A9FED921AB4EEC9
:1016C000410AF1EE10FA0AD1FFE746F2D001C2F268
:1016D000000149F69A10C3F6D9700860A1E140F202
:1016E0004C00C2F2000090ED000A9FED871AB4EEA4
:1016F000410AF1EE10FA0AD1FFE746F2D001C2F238
:10170000000146F26660C3F6E670086088E140F2C8
:101710004C00C2F2000090ED000A9FED7C1AB4EE7E
:10172000410AF1EE10FA0AD1FFE746F2D001C2F207
:10173000000143F23330C3F6F37008606FE140F20A
:101740004C00C2F2000090ED000A9FED711AB4EE59
:10175000410AF1EE10FA08D1FFE746F2D001C2F2D9
:1017600000014FF08040086058E140F24C00C2F2A6
:10177000000090ED000A9FED671AB4EE410AF1EE09
:1017800010FA0AD1FFE746F2D001C2F2000146F298
:101790006660C4F2060008603FE140F24C00C2F20D
:1017A000000090ED000A9FED5C1AB4EE410AF1EEE4
:1017B00010FA0AD1FFE746F2D001C2F200014CF65E
:1017C000CD40C4F20C00086026E140F24C00C2F2A9
:1017D000000090ED000A9FED511AB4EE410AF1EEBF
:1017E00010FA0AD1FFE746F2D001C2F2000143F23B
:1017F0003330C4F2130008600DE140F24C00C2F235
:10180000000090ED000A9FED461AB4EE410AF1EE99
:1018100010FA0AD1FFE746F2D001C2F2000149F600
:101820009A10C4F219000860F4E040F24C00C2F2D1
:10183000000090ED000A9FED3B1AB4EE410AF1EE74
:1018400010FA09D1FFE746F2D001C2F200010020F0
:10185000C4F220000860DCE040F24C00C2F200005C
:1018600090ED000A9FED301AB4EE410AF1EE10FA45
:101870000AD1FFE746F2D001C2F2000146F26660EB
:10188000C4F226000860C3E040F24C00C2F200003F
:1018900090ED000A9FED251AB4EE410AF1EE10FA20
:1018A0000AD1FFE746F2D001C2F200014CF6CD406A
:1018B000C4F22C000860AAE040F24C00C2F2000022
:1018C00090ED000A9FED1A1AB4EE410AF1EE10FAFB
:1018D0004AD1FFE746F2D001C2F2000143F23330B1
:1018E000C4F23300086091E0000034420000484236
:1018F00000005C42000070420000824200008C4206
:10190000000096420000A0420000AA420000B4423B
:101910000000BE420000C8420000DC420000F0426D
:101920000000024300000C43000016430000204367
:1019300000002A430000344300003E4300004843B7
:101940003333DFC20000B4C3000034C30000B4432B
:1019500000FEFF4600BF00BF0000000000806640A0
:1019600000000060FB21094040F24C00C2F2000080
:1019700090ED000A1FED111AB4EE410AF1EE10FAD3
:101980000AD1FFE746F2D001C2F2000149F69A10EF
:10199000C4F23900086038E040F24C00C2F20000A6
:1019A00090ED000A1FED1C1AB4EE410AF1EE10FA98
:1019B00009D1FFE746F2D001C2F200010020C4F2D3
:1019C0004000086020E040F24C00C2F2000090EDC0
:1019D000000A1FED261AB4EE410AF1EE10FA0AD100
:1019E000FFE746F2D001C2F2000146F26660C4F29F
:1019F0004600086007E046F2D001C2F200014FF055
:101A00007E500860FFE7FFE7FFE7FFE7FFE7FFE73C
:101A1000FFE7FFE7FFE7FFE7FFE7FFE7FFE7FFE796
:101A2000FFE7FFE7FFE7FFE7FFE7FFE7FFE7FFE786
:101A300040F25810C2F2000090F8B40040B1FFE745
:101A400040F25740C2F20000007A012819D1FFE7A6
:101A500040F25811C2F20001999100209A90C1F809
:101A6000D400C1F8D800C1F8DC00C1F8E000C1F82A
:101A7000C400C1F8C800C1F8CC00C1F8D00001F022
:101A8000B6B840F25810C2F2000090F8B400022834
:101A900013D0FFE740F25810C2F2000090F8B400F3
:101AA00003280AD0FFE740F25810C2F2000090F875
:101AB000B400012840F05685FFE740F63850C2F2E6
:101AC000000090ED030A1FED651A70EE410A30EE3A
:101AD000011A1FED650A12F0B7F840F67060C2F205
:101AE000000080ED000A40F25810C2F2000090F8A9
:101AF000B400022840F02782FFE740F63850C2F2D7
:101B0000000090ED031A1FED720A30EE410A40F614
:101B10005C50C2F2000080ED000A90ED000A1FED5B
:101B20007B1AB4EE410AF1EE10FA0DDDFFE740F644
:101B30005C50C2F2000090ED000A1FED7E1A30EEFC
:101B4000010A80ED000A1BE040F65C50C2F2000082
:101B500090ED000A1FED841AB4EE410AF1EE10FA7E
:101B60000DDAFFE740F65C50C2F2000090ED000A8B
:101B70001FED8A1A30EE010A80ED000AFFE7FFE749
:101B800040F28D40C2F200008290B0F9010000EEF8
:101B9000100AB8EEC00A1FED921A8DED811A80EE80
:101BA000010A10EE100AFEF74AFD41EC100B8DED14
:101BB000720B40F65C50C2F2000084900068FEF7A1
:101BC0003EFD41EC100B51EC100B1FED9D0B53EC47
:101BD000102B87938692FEF761FC41EC100B51ECC1
:101BE000100B1FEDA10B53EC102B89938892FEF77D
:101BF000E3FB41EC100B14F0E3FC9DED721B51EC88
:101C0000110B53EC102BFEF7D7FB9DED811A02460A
:101C1000829874920A46749942EC101B8DED780BF1
:101C2000B0F9030000EE100AB8EEC00A80EE010A17
:101C300010EE100AFEF703FD0246849875920A46DC
:101C4000759942EC101B8DED760B0068FEF7F7FCE2
:101C5000869A879B41EC100B51EC100BFEF71EFC93
:101C6000889A899B41EC100B51EC100BFEF7A4FBFA
:101C700041EC100B14F008FD9DED761B51EC110B9F
:101C800053EC102BFEF798FB9DED781B41EC100BED
:101C900051EC110B53EC102BFEF788FB41EC100BB1
:101CA0008DED7A0B46F2D000C2F2000094900068ED
:101CB000FEF7C5FC9DED7A1B41EC100B51EC110BAE
:101CC00053EC102BFEF778FB41EC100B51EC100B92
:101CD000FEF7C8FC9DED811A0146829840F2581229
:101CE000C2F200029392C2F8B810B0F9010000EEFF
:101CF000100AB8EEC00A80EE010A10EE100AFEF7D4
:101D00009EFC024684987D920A467D9942EC101B07
:101D10008DED7E0B0068FEF792FC869A879B41EC66
:101D2000100B51EC100BFEF7B9FB889A899B41EC24
:101D3000100B51EC100BFEF73FFB41EC100B14F0B5
:101D4000A3FC9DED7E1B51EC110B53EC102BFEF709
:101D500033FB9DED811A0246829883920A4683994D
:101D600042EC101B8DED8C0BB0F9030000EE100A55
:101D7000B8EEC00A80EE010A10EE100AFEF75FFC12
:101D80000246849885920A46859942EC101B8DED97
:101D90008A0B0068FEF753FC869A879B41EC100B78
:101DA00051EC100BFEF77AFB889A899B41EC100BE3
:101DB00051EC100BFEF700FB41EC100B14F000FC93
:101DC0009DED8A1B51EC110B53EC102BFEF7F4FA2E
:101DD0009DED8C1B41EC100B51EC110B53EC102BB7
:101DE000FEF743FA024694988F920A468F9942EC86
:101DF000101B8DED900B0068FEF721FC9DED901BF4
:101E000041EC100B51EC110B53EC102BFEF7D4FAF4
:101E100041EC100B51EC100BFEF724FC9399C1F828
:101E2000BC0040F63850C2F2000090ED030A40F6C4
:101E30007060C2F20000D0ED000A40F62860C2F2E5
:101E4000000007F0B1FF9398B1EE400A80ED300A30
:101E500090ED300A02F048FC10EE100AFEF7EFFB9E
:101E60000246949895920A46959942EC101B8DED86
:101E7000960B0068FEF7E3FB41EC100B9FED381B5F
:101E800053EC112B51EC100BFEF796FA9DED960BCF
:101E900041EC110B53EC112B51EC100BFEF788FBAE
:101EA00000284FD1FFE740F65C50C2F2000090EDF1
:101EB000000A02F019FC10EE100AFEF7C0FB41EC1C
:101EC000100B9FED291B53EC112B51EC100BFEF75F
:101ED0006FFBB8BBFFE740F25810C2F200007190F0
:101EE00090ED300A8DED6D0A10EE100AFEF7A7FB9B
:101EF00041EC100B9FED1E1B53EC112B51EC100B02
:101F0000FEF75AFA9DED6D0A41EC110B8DED6E1B3B
:101F100002F0EAFB10EE100AFEF791FB9DED6E1B3E
:101F200041EC100B51EC110B53EC102BFEF7B6FAF1
:101F300041EC100B51EC100BFEF794FB7199C1F8BA
:101F4000C000FFE70DE340F25810C2F2000090F825
:101F5000B400032840F0BF8122E000BF00BF00BFF3
:101F60009A9999999999C93F000000000000E03FB3
:101F70007B14AE47E17A843F3333DFC200BF00BF3A
:101F8000CDCCCCCCCCCCE4BF00FEFF4600BF00BF24
:101F9000000000000080664000000060FB21094056
:101FA00041F66401C2F200010020886240F6385018
:101FB000C2F20000469090ED031A1FED110A30EEB8
:101FC000410A10EE100AFEF73AFB02464698479285
:101FD0000A46479942EC101B8DED480BB0F9020000
:101FE000FEF71CFB41EC100B1FED1B1B53EC112BE0
:101FF00051EC100BFEF7E0F99DED481B41EC100B86
:1020000053EC112B51EC100BFEF72FF941EC100B98
:1020100051EC100BFEF726FB40F65C51C2F20001BA
:102020005E91086040F25811C2F200016C9149F6CD
:102030009A10CBF69970C1F8C00040F28D40C2F200
:1020400000005C90B0F9010000EE100AB8EEC00A82
:102050001FED331A8DED5B1A80EE010A10EE100AA7
:10206000FEF7EDFA02465E984B920A464B9942EC17
:10207000101B8DED4C0B0068FEF7E1FA41EC100BE4
:1020800051EC100B1FED3E0B53EC102B6193609243
:10209000FEF704FA41EC100B51EC100B1FED420B54
:1020A00053EC102B63936292FEF786F941EC100B10
:1020B00014F086FA9DED4C1B51EC110B53EC102BD8
:1020C000FEF77AF99DED5B1A02465C984E920A463D
:1020D0004E9942EC101B8DED520BB0F9030000EE4F
:1020E000100AB8EEC00A80EE010A10EE100AFEF7E0
:1020F000A6FA02465E984F920A464F9942EC101B90
:102100008DED500B0068FEF79AFA609A619B41ECE6
:10211000100B51EC100BFEF7C1F9629A639B41EC76
:10212000100B51EC100BFEF747F941EC100B14F0BB
:10213000ABFA9DED501B51EC110B53EC102BFEF73D
:102140003BF99DED521B41EC100B51EC110B53EC84
:10215000102BFEF72BF941EC100B8DED540B46F2D2
:10216000D000C2F2000068900068FEF768FA9DEDAA
:10217000541B41EC100B51EC110B53EC102BFEF7E0
:102180001BF941EC100B51EC100BFEF76BFA9DEDB7
:102190005B1A6C9A01465C98C2F8B810B0F901005D
:1021A00000EE100AB8EEC00A80EE010A10EE100A26
:1021B000FEF745FA02465E9857920A46579942EC56
:1021C000101B8DED580B0068FEF739FA609A619B81
:1021D00041EC100B51EC100BFEF760F9629A639B17
:1021E00041EC100B51EC100BFEF7E6F841EC100B34
:1021F00014F04AFA9DED581B51EC110B53EC102BC7
:10220000FEF7DAF89DED5B1A02465C985D920A468D
:102210005D9942EC101B8DED660BB0F9030000EEEA
:10222000100AB8EEC00A80EE010A10EE100AFEF79E
:1022300006FA02465E985F920A465F9942EC101BCE
:102240008DED640B0068FEF7FAF9609A619B41EC32
:10225000100B51EC100BFEF721F9629A639B41ECD5
:10226000100B51EC100BFEF7A7F841EC100B14F01B
:10227000A7F99DED641B51EC110B53EC102BFEF7ED
:102280009BF89DED661B41EC100B51EC110B53ECD0
:10229000102BFDF7EAFF0246689869920A46699991
:1022A00042EC101B8DED6A0B0068FEF7C8F99DED3E
:1022B0006A1B41EC100B51EC110B53EC102BFEF789
:1022C0007BF841EC100B51EC100BFEF7CBF96C993D
:1022D000C1F8BC0044E140F25810C2F2000090F88E
:1022E000B400012840F03B81FFE740F63850C2F2CD
:1022F000000090ED031A1FEDE00A30EE410A40F6AF
:102300005C50C2F200003A9080ED000A40F28D402D
:10231000C2F200003890B0F9010000EE100AB8EEE9
:10232000C00A1FEDE71A8DED371A80EE010A10EE94
:10233000100AFEF784F902463A9829920A4629992A
:1023400042EC101B8DED2A0B0068FEF778F941EC8A
:10235000100B51EC100B1FEDF20B53EC102B3D93B7
:102360003C92FEF79BF841EC100B51EC100B1FED6B
:10237000F60B53EC102B3F933E92FEF71DF841EC09
:10238000100B14F01DF99DED2A1B51EC110B53ECB1
:10239000102BFEF711F89DED371A024638982C9253
:1023A0000A462C9942EC101B8DED300BB0F903005E
:1023B00000EE100AB8EEC00A80EE010A10EE100A14
:1023C000FEF73DF902463A982D920A462D9942ECC5
:1023D000101B8DED2E0B0068FEF731F93C9A3D9BEA
:1023E00041EC100B51EC100BFEF758F83E9A3F9B56
:1023F00041EC100B51EC100BFDF7DEFF41EC100B24
:1024000014F042F99DED2E1B51EC110B53EC102BE7
:10241000FDF7D2FF9DED301B41EC100B51EC110B81
:1024200053EC102BFDF7C2FF41EC100B51EC100BDD
:10243000FEF718F99DED371A0146389840F2581208
:10244000C2F200024592C2F8BC10B0F9010000EEE1
:10245000100AB8EEC00A80EE010A10EE100AFEF76C
:10246000EEF802463A9833920A46339942EC101B32
:102470008DED340B0068FEF7E2F83C9A3D9B41EC91
:10248000100B51EC100BFEF709F83E9A3F9B41EC04
:10249000100B51EC100BFDF78FFF41EC100B14F0FB
:1024A000F3F89DED341B51EC110B53EC102BFDF7A1
:1024B00083FF9DED371A0246389839920A463999BA
:1024C00042EC101B8DED420BB0F9030000EE100A38
:1024D000B8EEC00A80EE010A10EE100AFEF7AFF85F
:1024E00002463A983B920A463B9942EC101B8DED0E
:1024F000400B0068FEF7A3F83C9A3D9B41EC100BA3
:1025000051EC100BFDF7CAFF3E9A3F9B41EC100BBC
:1025100051EC100BFDF750FF41EC100B14F050F88C
:102520009DED401B51EC110B53EC102BFDF744FFBC
:102530009DED421B41EC100B51EC110B53EC102B99
:10254000FDF793FE41EC100B51EC100BFEF78AF8EF
:102550004599C1F8B8000020C1F8C000FFE7FFE7C7
:10256000FFE7FFE740F28D40C2F20000B0F9010042
:1025700000EE100AB8EEC00A9FEDC01A80EE010A04
:1025800002F0B2F810EE100AFEF759F841EC100B09
:1025900051EC100B9FEDBA0B53EC102BFEF723F808
:1025A00010BBFFE740F28D40C2F20000B0F903001B
:1025B00000EE100AB8EEC00A9FEDB01A80EE010AD4
:1025C00002F092F810EE100AFEF739F841EC100B09
:1025D00051EC100B9FEDAA0B53EC102BFDF7CDFF28
:1025E000002840F0D580FFE700208DF86F02FFE75C
:1025F0009DF86F02032800F3C480FFE740F25811F2
:10260000C2F200012891D1F8B8001A90D1F8BC00AC
:10261000D1F8C0101491FEF712F8024614981592E2
:102620000A46159942EC101B8DED180BFEF707F8C2
:1026300041EC100B9FED941B53EC112B51EC100B44
:10264000FDF7BAFE41EC100B51EC100B9FED900B17
:1026500053EC102BFDF722FF41EC100B8DED160B08
:102660009DF86F1240F22000C2F2000000EB8102E0
:102670001C9250F82100FDF7E2FF9DED160B41EC96
:10268000110B53EC112B51EC100B1F911E90FDF709
:1026900093FE9DED180B41EC110B53EC112B51ECFB
:1026A000100BFDF7E2FD02461A981B920A461B9991
:1026B00042EC101B8DED220BFDF7C1FF02461C986A
:1026C0001D920A461D9942EC101B8DED200B4068AF
:1026D000FDF7B5FF02461E980B461F9943EC102BE1
:1026E00053EC102BFDF768FE9DED200B41EC110B18
:1026F00053EC112B51EC100BFDF7B7FD9DED220BA8
:1027000041EC110B13F05CFE51EC100B9FED620BD2
:1027100053EC102BFDF7C2FE41EC100B51EC100BEB
:102720009FED5F0B53EC102BFDF746FE41EC100BB9
:102730008DED240B9DF86F12279140F20400C2F238
:10274000000050F82100FDF77AFF9DED241B41ECBD
:10275000100B51EC110B53EC102BFDF786FD41ECE7
:10276000100B51EC100BFDF77DFF279A289901EB18
:102770008201C1F8F4009DF86F0201308DF86F02FC
:1027800036E740F60461C2F2000100200880ABE0A9
:1027900040F25810C2F2000090ED300AB5EE400A47
:1027A000F1EE10FA29DDFFE740F20401C2F2000168
:1027B00091ED000A9FED3C1A30EE010A40F25810EC
:1027C000C2F2000080ED3D0A91ED010A9FED371A3B
:1027D00030EE010A80ED3E0A91ED020A9FED341AB7
:1027E00030EE010A80ED3F0A91ED030A9FED311AA8
:1027F00030EE010A80ED400A75E040F25810C2F256
:10280000000090ED300AB5EE400AF1EE10FA29DA38
:10281000FFE740F20401C2F2000191ED000A9FEDD2
:10282000241A30EE010A40F25810C2F2000080ED86
:102830003D0A91ED010A9FEDF51A30EE010A80ED97
:102840003E0A91ED020A9FEDF21A30EE010A80ED88
:102850003F0A91ED030A9FEDEF1A30EE010A80ED79
:10286000400A3FE040F25810C2F2000090ED300AFA
:10287000B5EE400AF1EE10FA33D11DE000FEFF463E
:102880009A9999999999A93F213A7F669EA0F63F16
:10289000000000000000004097D17E5AFB21094053
:1028A0000000000000806640000007C3000034C242
:1028B000000034420000074340F20400C2F200006E
:1028C000026840F25811C2F20001C1F8F4204268D7
:1028D000C1F8F8208268C1F8FC20C068C1F8000186
:1028E000FFE7FFE7FFE7FFE740F25810C2F2000002
:1028F000139090ED3D0A40F20440C2F2000090EDCA
:10290000031A9FEDC12A8DED122A71EE420A31EEB3
:10291000021A11F099F99DED122A139880ED3D0AE3
:1029200090ED3E0A40F2E840C2F2000090ED031A3A
:1029300071EE420A31EE021A11F086F99DED122A6B
:10294000139880ED3E0A90ED3F0A40F2C040C2F27B
:10295000000090ED031A71EE420A31EE021A11F0F6
:1029600073F99DED122A139880ED3F0A90ED400A0D
:1029700040F2DC30C2F2000090ED031A71EE420A20
:1029800031EE021A11F060F9139880ED400A002030
:102990008DF86E02FFE79DF86E02032800F3B48005
:1029A000FFE740F25811C2F20001D1F8B8000890D8
:1029B000D1F8BC00D1F8C0100291FDF740FE0246EC
:1029C000029803920A46039942EC101B8DED060B08
:1029D000FDF735FE41EC100B9FED871B53EC112BDF
:1029E00051EC100BFDF7E8FC41EC100B51EC100B17
:1029F0009FED830B53EC102BFDF750FD41EC100BBA
:102A00008DED040B9DF86E1240F22000C2F2000022
:102A100000EB81020A9250F82100FDF710FE9DEDB7
:102A2000040B41EC110B53EC112B51EC100B0D91DD
:102A30000C90FDF7C1FC9DED060B41EC110B53EC26
:102A4000112B51EC100BFDF710FC41EC100B53EC6B
:102A5000102B10461946FDF7AFFC02460898099264
:102A60000A46099942EC101B8DED100BFDF7E7FDAE
:102A700002460A980B920A460B9942EC101B8DED08
:102A80000E0B4068FDF7DBFD02460C980B460D99D6
:102A900043EC102B53EC102BFDF78EFC9DED0E0B31
:102AA00041EC110B53EC112B51EC100BFDF7DDFB3E
:102AB00041EC100B53EC102B10461946FDF77CFC33
:102AC0009DED101B41EC100B51EC110B53EC102B36
:102AD000FDF7CBFB41EC100B51EC100BFDF7C2FDE9
:102AE00000EE100A13F071FE9DF86E1242F294008F
:102AF000C2F2000000EB810080ED000A9DF86E023A
:102B000001308DF86E0246E742F29401C2F20001F4
:102B100091ED000AB1EE400A40F25810C2F20000F6
:102B2000019080ED390A4A68C0F8E8208A68C0F848
:102B3000EC2091ED030AB1EE400A80ED3C0AFDF76E
:102B400019FF019840F20441C2F2000191ED030A1D
:102B5000D0ED3D0A41F21870C2F2000007F024F9EE
:102B6000019880ED410A40F2E841C2F2000191ED86
:102B7000030AD0ED3E0A41F64470C2F2000007F0AD
:102B800013F9019880ED420A40F2C041C2F20001FF
:102B900091ED030AD0ED3F0A41F66C60C2F20000ED
:102BA00007F002F9019880ED430A40F2DC31C2F2ED
:102BB000000191ED030AD0ED400A41F24060C2F2FB
:102BC000000007F0F1F8019880ED440A00F024F8C5
:102BD000019840F24641C2F200010A7840F24543B2
:102BE000C2F200031A7090F8B4000870FFE70DF508
:102BF0001C7D80BD00BF00BF213A7F669EA0F63FCE
:102C000000000000000000400000344300000743C3
:102C1000000007C3000034C280B582B040F2044017
:102C2000C2F20000B0F9020000EE100AB8EEC00ACD
:102C300040F25810C2F200000190D0ED410A41F27A
:102C40006070C2F2000007F0AFF8019880ED350A1D
:102C500040F2E841C2F20001B1F9021000EE101A90
:102C6000B8EEC00AD0ED420A41F68C70C2F2000004
:102C700007F09AF8019880ED360A40F2C041C2F29E
:102C80000001B1F9021000EE101AB8EEC00AD0ED42
:102C9000430A41F6B460C2F2000007F085F80198DB
:102CA00080ED370A40F2DC31C2F20001B1F90210C6
:102CB00000EE101AB8EEC00AD0ED440A41F2886066
:102CC000C2F2000007F070F8019880ED380A40F277
:102CD000F031C2F20001B1F9021000EE101AB8EEA4
:102CE000C00A40F23401C2F20001009191ED001AD5
:102CF00080EE010AD0ED390A41F2D060C2F2000044
:102D000007F052F80099019880ED310A40F2D44260
:102D1000C2F20002B2F9022000EE102AB8EEC00A98
:102D200091ED001A80EE010AD0ED3A0A41F6FC60FE
:102D3000C2F2000007F038F80099019880ED320ADD
:102D400040F2AC42C2F20002B2F9022000EE102AB8
:102D5000B8EEC00A91ED001A80EE010AD0ED3B0AF0
:102D600041F62460C2F2000007F01EF800990198B5
:102D700080ED330A40F2C832C2F20002B2F90220FA
:102D800000EE102AB8EEC00A91ED001A80EE010A9A
:102D9000D0ED3C0A41F2F850C2F2000007F004F80E
:102DA000019880ED340A02B080BD000080B540F289
:102DB000F031C2F2000108684A688B68D1F80CC093
:102DC000D1F810E040F25811C2F20001C1F860E001
:102DD000C1F85CC08B654A65086540F2D44EC2F20A
:102DE000000EDEF80000DEF80420DEF80830DEF821
:102DF0000CC0DEF810E0C1F874E0C1F870C0CB661A
:102E00008A66486640F2AC4EC2F2000EDEF8000060
:102E1000DEF80420DEF80830DEF80CC0DEF810E042
:102E2000C1F888E0C1F884C0C1F88030CA678867FB
:102E300040F2C83EC2F2000EDEF80000DEF80420C8
:102E4000DEF80830DEF80CC0DEF810E0C1F89CE0D7
:102E5000C1F898C0C1F89430C1F89020C1F88C0036
:102E600040F2044EC2F2000EDEF80000DEF804204C
:102E7000DEF80830DEF80CC0DEF810E0C1F810E033
:102E8000C1F80CC08B604A60086040F2E84EC2F2A4
:102E9000000EDEF80000DEF80420DEF80830DEF870
:102EA0000CC0DEF810E0C1F824E0C1F820C0CB610E
:102EB0008A61486140F2C04EC2F2000EDEF80000A6
:102EC000DEF80420DEF80830DEF80CC0DEF810E092
:102ED000C1F838E0C1F834C00B63CA62886240F2BE
:102EE000DC3EC2F2000EDEF80000DEF80420DEF860
:102EF0000830DEF80CC0DEF810E0C1F84CE0C1F894
:102F000048C04B640A64C86380BD000080B588B0C7
:102F100041F26070C2F2000040F2A002C2F2000270
:102F2000002106919FED710A8DED000ADFED700A18
:102F3000CDED010A07F05EF89DED000ADDED010A16
:102F4000069941F68C70C2F2000040F2F402C2F21F
:102F5000000207F04FF89DED000ADDED010A069929
:102F600041F6B460C2F2000040F2D002C2F20002A8
:102F700007F040F89DED000ADDED010A069941F2E7
:102F80008860C2F2000040F27C02C2F2000207F048
:102F900031F8069941F21870C2F2000040F2940232
:102FA000C2F200029FED530A8DED020ADFED520AD4
:102FB000CDED030A07F01EF89DED020ADDED030AD0
:102FC000069941F64470C2F2000040F2E802C2F2F3
:102FD000000207F00FF89DED020ADDED030A0699E5
:102FE00041F66C60C2F2000040F2C402C2F200027C
:102FF00007F000F89DED020ADDED030A069941F2A3
:103000004060C2F2000040F27002C2F2000206F01C
:10301000F1FF069941F2D060C2F2000040F288024E
:10302000C2F200029FED350A8DED040ADFED340A8D
:10303000CDED050A06F0DEFF9DED040ADDED050A83
:10304000069941F6FC60C2F2000040F2DC02C2F2D6
:10305000000206F0CFFF9DED040ADDED050A06999A
:1030600041F62460C2F2000040F2B802C2F200024F
:1030700006F0C0FF9DED040ADDED050A069941F258
:10308000F850C2F2000040F26402C2F2000206F000
:10309000B1FF069940F62860C2F2000040F25002EB
:1030A000C2F20002B1EE040AF0EE000ACDED070A0A
:1030B00006F0A0FF06999DED070A41F66400C2F2F2
:1030C000000040F2AC02C2F20002F6EE000A06F086
:1030D00091FF40F22C11C2F20001012008814FF44F
:1030E0009670C8819620088208B080BD00007A469C
:1030F00000409C450000964300007042000080465E
:1031000000007A4481B040F28D40C2F20000407964
:10311000013801460091312800F23C800099DFE837
:1031200001F01939393939313939392939393939C8
:103130003939392139393939393939393939393917
:103140003939393939393931393939293939393907
:103150003939392140F25811C2F20001002081F8BA
:10316000B40018E040F25811C2F20001032081F8C7
:10317000B40010E040F25811C2F20001022081F8C0
:10318000B40008E040F25811C2F20001012081F8B9
:10319000B40000E0FFE740F28D40C2F20000407949
:1031A0008006002808D5FFE740F25811C2F200015E
:1031B000012081F81C0107E040F25811C2F2000121
:1031C000002081F81C01FFE701B0704770B588B09E
:1031D0009C4696460C4605460F980E990D9A0C9BF8
:1031E000ADF81E50ADF81C40ADF81AE0ADF818C0AF
:1031F000ADF81630ADF81420ADF81210ADF810008F
:1032000040F6A851C2F20001019100208860C86018
:10321000082008619DF81F3040F24742C2F20002C8
:10322000104600F8083F02909DF81E0050729DF86D
:103230001D0090729DF81C00D0729DF81B00107349
:103240009DF81A0050739DF8190090739DF81800AE
:10325000D0739DF8170010709DF8160050709DF8FF
:10326000150090709DF81400D0709DF81300107137
:103270009DF8120050719DF8110090719DF810009A
:10328000D0714FF40070086040F6E060C2F20000B8
:10329000039042F28403C2F2000301F07DFB01209F
:1032A00010F0B8FD0199029A039840F2FF130B60E9
:1032B00042F28803C2F2000301F06EFB08B070BD59
:1032C00040F26041C2F200010868013008604868BD
:1032D00001304860886801308860C8680130C86083
:1032E0000869013008614869013048618869013026
:1032F0008861C8690130C861086A01300862704796
:1033000081B000208DF80300FFE79DF80300072837
:1033100024DCFFE79DF8031040F26040C2F2000099
:1033200050F82100332809D3FFE79DF8032040F22D
:103330008441C2F200010120885408E09DF8032076
:1033400040F28441C2F2000100208854FFE7FFE709
:103350009DF8030001308DF80300D6E740F260408D
:10336000C2F20000006A332807D3FFE740F284412D
:10337000C2F200010120087206E040F28441C2F26C
:10338000000100200872FFE701B0704780B541F2EC
:103390008800C2F2000002F019FC80BD80B5E2B0E6
:1033A00041F22820C2F20000C06C006846F2594188
:1033B000C4F202018842C0F0F380FFE746F2044005
:1033C000C4F202000068619041F22820C2F20000BD
:1033D000C06C006846F21001C4F20201884203D1B9
:1033E000FFE720206090D6E041F22820C2F20000E2
:1033F000C06C006846F21041C4F20201884203D159
:10340000FFE720205F90C3E041F22820C2F20000D5
:10341000C06C006846F27001C4F20201884203D118
:10342000FFE720205E90B0E041F22820C2F20000C9
:10343000C06C006846F27041C4F20201884203D1B8
:10344000FFE720205D909DE041F22820C2F20000BD
:10345000C06C006846F22801C4F20201884204D11F
:10346000FFE74FF400605C9089E041F22820C2F24F
:103470000000C06C006846F22841C4F20201884294
:1034800004D1FFE74FF400605B9075E041F2282023
:10349000C2F20000C06C006846F28801C4F202016A
:1034A000884204D1FFE74FF400605A9061E041F296
:1034B0002820C2F20000C06C006846F28841C4F2C5
:1034C0000201884204D1FFE74FF4006059904DE0BB
:1034D00041F22820C2F20000C06C006846F24001B0
:1034E000C4F20201884204D1FFE74FF40010589063
:1034F00039E041F22820C2F20000C06C006846F2B8
:103500004041C4F20201884204D1FFE74FF40010A9
:10351000579025E041F22820C2F20000C06C0068FC
:1035200046F2A001C4F20201884204D1FFE74FF441
:103530000010569011E041F22820C2F20000C06C49
:10354000016846F2A042C4F202024FF000609142CC
:1035500008BF4FF400105690FFE756985790FFE7CA
:1035600057985890FFE758985990FFE759985A9004
:10357000FFE75A985B90FFE75B985C90FFE75C98E9
:103580005D90FFE75D985E90FFE75E985F90FFE7D4
:103590005F986090FFE76198609908405590F7E266
:1035A00041F22820C2F20000C06C006846F2B90166
:1035B000C4F202018842C0F0F380FFE746F2004007
:1035C000C4F202000068549041F22820C2F20000C8
:1035D000C06C006846F21001C4F20201884203D1B7
:1035E000FFE720205390D6E041F22820C2F20000ED
:1035F000C06C006846F21041C4F20201884203D157
:10360000FFE720205290C3E041F22820C2F20000E0
:10361000C06C006846F27001C4F20201884203D116
:10362000FFE720205190B0E041F22820C2F20000D4
:10363000C06C006846F27041C4F20201884203D1B6
:10364000FFE7202050909DE041F22820C2F20000C8
:10365000C06C006846F22801C4F20201884204D11D
:10366000FFE74FF400604F9089E041F22820C2F25A
:103670000000C06C006846F22841C4F20201884292
:1036800004D1FFE74FF400604E9075E041F228202E
:10369000C2F20000C06C006846F28801C4F2020168
:1036A000884204D1FFE74FF400604D9061E041F2A1
:1036B0002820C2F20000C06C006846F28841C4F2C3
:1036C0000201884204D1FFE74FF400604C904DE0C6
:1036D00041F22820C2F20000C06C006846F24001AE
:1036E000C4F20201884204D1FFE74FF400104B906E
:1036F00039E041F22820C2F20000C06C006846F2B6
:103700004041C4F20201884204D1FFE74FF40010A7
:103710004A9025E041F22820C2F20000C06C006807
:1037200046F2A001C4F20201884204D1FFE74FF43F
:103730000010499011E041F22820C2F20000C06C54
:10374000016846F2A042C4F202024FF000609142CA
:1037500008BF4FF400104990FFE749984A90FFE7EF
:103760004A984B90FFE74B984C90FFE74C984D9050
:10377000FFE74D984E90FFE74E984F90FFE74F9828
:103780005090FFE750985190FFE751985290FFE713
:1037900052985390FFE75498539908404890F4E1A9
:1037A00041F22820C2F20000C06C006846F25901C4
:1037B000C4F202018842C0F0F380FFE746F2040041
:1037C000C4F202000068479041F22820C2F20000D3
:1037D000C06C006846F21001C4F20201884203D1B5
:1037E000FFE720204690D6E041F22820C2F20000F8
:1037F000C06C006846F21041C4F20201884203D155
:10380000FFE720204590C3E041F22820C2F20000EB
:10381000C06C006846F27001C4F20201884203D114
:10382000FFE720204490B0E041F22820C2F20000DF
:10383000C06C006846F27041C4F20201884203D1B4
:10384000FFE7202043909DE041F22820C2F20000D3
:10385000C06C006846F22801C4F20201884204D11B
:10386000FFE74FF40060429089E041F22820C2F265
:103870000000C06C006846F22841C4F20201884290
:1038800004D1FFE74FF40060419075E041F2282039
:10389000C2F20000C06C006846F28801C4F2020166
:1038A000884204D1FFE74FF40060409061E041F2AC
:1038B0002820C2F20000C06C006846F28841C4F2C1
:1038C0000201884204D1FFE74FF400603F904DE0D1
:1038D00041F22820C2F20000C06C006846F24001AC
:1038E000C4F20201884204D1FFE74FF400103E9079
:1038F00039E041F22820C2F20000C06C006846F2B4
:103900004041C4F20201884204D1FFE74FF40010A5
:103910003D9025E041F22820C2F20000C06C006812
:1039200046F2A001C4F20201884204D1FFE74FF43D
:1039300000103C9011E041F22820C2F20000C06C5F
:10394000016846F2A042C4F202024FF000609142C8
:1039500008BF4FF400103C90FFE73C983D90FFE714
:103960003D983E90FFE73E983F90FFE73F9840909C
:10397000FFE740984190FFE741984290FFE7429867
:103980004390FFE743984490FFE744984590FFE752
:1039900045984690FFE74798469908403B90F1E0EC
:1039A00046F20000C4F2020000683A9041F228207A
:1039B000C2F20000C06C006846F21001C4F20201BD
:1039C000884203D1FFE720203990D6E041F2282039
:1039D000C2F20000C06C006846F21041C4F202015D
:1039E000884203D1FFE720203890C3E041F228202D
:1039F000C2F20000C06C006846F27001C4F202011D
:103A0000884203D1FFE720203790B0E041F2282020
:103A1000C2F20000C06C006846F27041C4F20201BC
:103A2000884203D1FFE7202036909DE041F2282014
:103A3000C2F20000C06C006846F22801C4F2020124
:103A4000884204D1FFE74FF40060359089E041F2ED
:103A50002820C2F20000C06C006846F22841C4F27F
:103A60000201884204D1FFE74FF40060349075E012
:103A700041F22820C2F20000C06C006846F28801C2
:103A8000C4F20201884204D1FFE74FF40060339092
:103A900061E041F22820C2F20000C06C006846F2EA
:103AA0008841C4F20201884204D1FFE74FF400606C
:103AB00032904DE041F22820C2F20000C06C006854
:103AC00046F24001C4F20201884204D1FFE74FF4FC
:103AD0000010319039E041F22820C2F20000C06CA1
:103AE000006846F24041C4F20201884204D1FFE777
:103AF0004FF40010309025E041F22820C2F200007F
:103B0000C06C006846F2A001C4F20201884204D1F0
:103B1000FFE74FF400102F9011E041F22820C2F28D
:103B20000000C06C016846F2A042C4F202024FF0ED
:103B30000060914208BF4FF400102F90FFE72F98CC
:103B40003090FFE730983190FFE731983290FFE7EF
:103B500032983390FFE733983490FFE734983590EC
:103B6000FFE735983690FFE736983790FFE73798AC
:103B70003890FFE738983990FFE73A98399908402C
:103B80003B90FFE73B984890FFE748985590FFE748
:103B90005598002800F06984FFE741F22820C2F21E
:103BA0000000C06C006846F25941C4F2020188422C
:103BB000C0F0EF80FFE741F22820C2F20000C06CA5
:103BC000006846F21001C4F20201884203D1FFE707
:103BD00020202E90D6E041F22820C2F20000C06CD6
:103BE000006846F21041C4F20201884203D1FFE7A7
:103BF00020202D90C3E041F22820C2F20000C06CCA
:103C0000006846F27001C4F20201884203D1FFE766
:103C100020202C90B0E041F22820C2F20000C06CBD
:103C2000006846F27041C4F20201884203D1FFE706
:103C300020202B909DE041F22820C2F20000C06CB1
:103C4000006846F22801C4F20201884204D1FFE76D
:103C50004FF400602A9089E041F22820C2F200006F
:103C6000C06C006846F22841C4F20201884204D1C7
:103C7000FFE74FF40060299075E041F22820C2F27E
:103C80000000C06C006846F28801C4F2020188425C
:103C900004D1FFE74FF40060289061E041F2282052
:103CA000C2F20000C06C006846F28841C4F2020112
:103CB000884204D1FFE74FF4006027904DE041F2C5
:103CC0002820C2F20000C06C006846F24001C4F235
:103CD0000201884204D1FFE74FF40010269039E03A
:103CE00041F22820C2F20000C06C006846F2404158
:103CF000C4F20201884204D1FFE74FF4001025907E
:103D000025E041F22820C2F20000C06C006846F2B3
:103D1000A001C4F20201884204D1FFE74FF4001071
:103D2000249011E041F22820C2F20000C06C01682A
:103D300046F2A042C4F202024FF00060914208BF76
:103D40004FF400102490FFE724982590FFE7259872
:103D50002690FFE726982790FFE727982890FFE70F
:103D600028982990FFE729982A90FFE72A982B9016
:103D7000FFE72B982C90FFE72C982D90FFE72D98CC
:103D80002E90FFE72E9846F20C41C4F20201086023
:103D9000EDE241F22820C2F20000C06C006846F259
:103DA000B901C4F202018842C0F0F080FFE741F29D
:103DB0002820C2F20000C06C006846F21001C4F274
:103DC0000201884203D1FFE720202390D6E041F290
:103DD0002820C2F20000C06C006846F21041C4F214
:103DE0000201884203D1FFE720202290C3E041F284
:103DF0002820C2F20000C06C006846F27001C4F2D4
:103E00000201884203D1FFE720202190B0E041F277
:103E10002820C2F20000C06C006846F27041C4F273
:103E20000201884203D1FFE7202020909DE041F26B
:103E30002820C2F20000C06C006846F22801C4F2DB
:103E40000201884204D1FFE74FF400601F9089E02F
:103E500041F22820C2F20000C06C006846F22841FE
:103E6000C4F20201884204D1FFE74FF400601E90C3
:103E700075E041F22820C2F20000C06C006846F2F2
:103E80008801C4F20201884204D1FFE74FF40060C8
:103E90001D9061E041F22820C2F20000C06C006871
:103EA00046F28841C4F20201884204D1FFE74FF490
:103EB00000601C904DE041F22820C2F20000C06C6E
:103EC000006846F24001C4F20201884204D1FFE7D3
:103ED0004FF400101B9039E041F22820C2F200009C
:103EE000C06C006846F24041C4F20201884204D12D
:103EF000FFE74FF400101A9025E041F22820C2F2AB
:103F00000000C06C006846F2A001C4F202018842C1
:103F100004D1FFE74FF40010199011E041F228207E
:103F2000C2F20000C06C016846F2A042C4F2020274
:103F30004FF00060914208BF4FF400101990FFE766
:103F400019981A90FFE71A981B90FFE71B981C908E
:103F5000FFE71C981D90FFE71D981E90FFE71E9835
:103F60001F90FFE71F982090FFE720982190FFE720
:103F700021982290FFE722982390FFE7239846F2AA
:103F80000841C4F2020108601890EEE141F22820D5
:103F9000C2F20000C06C006846F25901C4F202018E
:103FA0008842C0F0F080FFE741F22820C2F2000012
:103FB000C06C006846F21001C4F20201884203D1CD
:103FC000FFE720201790D6E041F22820C2F200003F
:103FD000C06C006846F21041C4F20201884203D16D
:103FE000FFE720201690C3E041F22820C2F2000033
:103FF000C06C006846F27001C4F20201884203D12D
:10400000FFE720201590B0E041F22820C2F2000026
:10401000C06C006846F27041C4F20201884203D1CC
:10402000FFE7202014909DE041F22820C2F200001A
:10403000C06C006846F22801C4F20201884204D133
:10404000FFE74FF40060139089E041F22820C2F2AC
:104050000000C06C006846F22841C4F202018842A8
:1040600004D1FFE74FF40060129075E041F2282080
:10407000C2F20000C06C006846F28801C4F202017E
:10408000884204D1FFE74FF40060119061E041F2F3
:104090002820C2F20000C06C006846F28841C4F2D9
:1040A0000201884204D1FFE74FF4006010904DE018
:1040B00041F22820C2F20000C06C006846F24001C4
:1040C000C4F20201884204D1FFE74FF400100F90C0
:1040D00039E041F22820C2F20000C06C006846F2CC
:1040E0004041C4F20201884204D1FFE74FF40010BE
:1040F0000E9025E041F22820C2F20000C06C00685A
:1041000046F2A001C4F20201884204D1FFE74FF455
:1041100000100D9011E041F22820C2F20000C06CA6
:10412000016846F2A042C4F202024FF000609142E0
:1041300008BF4FF400100D90FFE70D980E90FFE7B9
:104140000E980F90FFE70F981090FFE710981190CE
:10415000FFE711981290FFE712981390FFE713986A
:104160001490FFE714981590FFE715981690FFE755
:1041700016981790FFE7179846F20C01C4F2020157
:1041800008600C90EEE041F22820C2F20000C06C02
:10419000006846F21001C4F20201884203D1FFE731
:1041A00020200B90D6E041F22820C2F20000C06C23
:1041B000006846F21041C4F20201884203D1FFE7D1
:1041C00020200A90C3E041F22820C2F20000C06C17
:1041D000006846F27001C4F20201884203D1FFE791
:1041E00020200990B0E041F22820C2F20000C06C0B
:1041F000006846F27041C4F20201884203D1FFE731
:10420000202008909DE041F22820C2F20000C06CFE
:10421000006846F22801C4F20201884204D1FFE797
:104220004FF40060079089E041F22820C2F20000BC
:10423000C06C006846F22841C4F20201884204D1F1
:10424000FFE74FF40060069075E041F22820C2F2CB
:104250000000C06C006846F28801C4F20201884286
:1042600004D1FFE74FF40060059061E041F228209F
:10427000C2F20000C06C006846F28841C4F202013C
:10428000884204D1FFE74FF4006004904DE041F212
:104290002820C2F20000C06C006846F24001C4F25F
:1042A0000201884204D1FFE74FF40010039039E087
:1042B00041F22820C2F20000C06C006846F2404182
:1042C000C4F20201884204D1FFE74FF400100290CB
:1042D00025E041F22820C2F20000C06C006846F2DE
:1042E000A001C4F20201884204D1FFE74FF400109C
:1042F000019011E041F22820C2F20000C06C016878
:1043000046F2A042C4F202024FF00060914208BFA0
:104310004FF400100190FFE701980290FFE7029828
:104320000390FFE703980490FFE704980590FFE7E8
:1043300005980690FFE706980790FFE70798089012
:10434000FFE708980990FFE709980A90FFE70A98A5
:104350000B90FFE70B9846F20801C4F202010860D7
:104360000C90FFE70C981890FFE71898FFE740F6CD
:10437000B760C2F2000000788007002821D5FFE76F
:1043800040F6B761C2F20001087800F0FD00087045
:1043900040F20040C4F202000122114602F0B8F8D7
:1043A00040F6AF60C2F20000013040F66051C2F248
:1043B0000001143140F2B822C2F20002FCF7BCFB4B
:1043C000FFE740F65A50C2F200000078800700284C
:1043D0001DD5FFE740F65A51C2F20001087800F0FF
:1043E000FD0008700020C4F202001021012202F03A
:1043F0008FF840F64C50C2F20000023040F6605296
:10440000C2F20002111D2032FCF73AFBFFE740F632
:104410005950C2F2000000788007002822D5FFE73B
:1044200040F65951C2F20001087800F0FD00087012
:104430000020C4F202001021012202F069F840F6C7
:104440005550C2F20000023040F66051C2F2000145
:1044500000911031FCF7E6FB009890ED040A0FF094
:10446000E5FAFFE70FF0BEF9FFE762B080BD00009C
:1044700080B541F2E800C2F2000001F0A7FB80BD68
:1044800080B540F6C870C2F2000001F09FFB80BD0D
:1044900080B540F66870C2F2000001F097FB80BD65
:1044A00080B541F24810C2F2000001F08FFB80BDE0
:1044B00080B541F22800C2F2000001F087FB80BD08
:1044C00082B001900198007810384AF6AB21CAF604
:1044D000AA21A0FB011000090090009947F20450A6
:1044E000C0F60100405C0199C8650098042807D314
:1044F000FFE701990868042262F30900886506E075
:104500000199086840F2FF3290438865FFE70198FF
:10451000806D02B07047000086B0059000208DF8D5
:1045200013000598806A03900598806910BBFFE727
:104530000398029003281BD80299DFE801F0020DCE
:104540000218059890F82F00C00720B1FFE701205E
:104550008DF81300FFE70CE00598C06AB0F1C07F4A
:1045600004D1FFE701208DF81300FFE701E000E030
:10457000FFE745E005988069B0F5005F25D1FFE7CA
:104580000398019003281ED80199DFE801F0020684
:10459000021101208DF8130016E0059890F82F0005
:1045A000C00720B1FFE701208DF81300FFE70BE003
:1045B0000598C06AB0F1C07F04D1FFE701208DF8F3
:1045C0001300FFE700E0FFE719E0039800900328DD
:1045D00004D3FFE70098032804D00EE001208DF8F3
:1045E00013000BE0059890F82F00C00720B1FFE7FB
:1045F00001208DF81300FFE700E0FFE7FFE7FFE78A
:104600009DF8130006B070477047000081B000901D
:10461000009940F28442C2F20002107A08721068D7
:1046200052684A60086001B07047000080B51020F1
:1046300001F076FD80BD000080B5202001F070FD06
:1046400080BD000080B584B0039002918DF80720F2
:1046500000208DF80600039804F0F4FA08B1FFE793
:1046600037E00398D0F80D02B0F5FD7F01D9FFE7E0
:104670002FE0FFE79DF806009DF80710884228DA32
:10468000FFE70399D1F80902431C4CF21160C1F60F
:10469000B07053FB00F2901100EBD27040F2052293
:1046A00000FB1230C1F8090202989DF80610405C28
:1046B0000399D1F8092288540399D1F80D020130E9
:1046C000C1F80D02FFE79DF8060001308DF80600E5
:1046D000D0E704B080BD000081B0EFF3108072B667
:1046E0000090FFE7FEE7000082B08DED000A9DED2F
:1046F000000AB5EE400AF1EE10FA07DAFFE79DED89
:10470000000AB1EE400A8DED010A02E00098019026
:10471000FFE79DED010A02B07047000087B0DDF8A9
:1047200030C0DDF82CC0DDF828C0DDF824C0DDF88D
:1047300020C0DDF81CC006900591049203938DED16
:10474000020A00200190FFE7019900200229009051
:1047500008DCFFE705980199405C002818BF01209C
:104760000090FFE70098C00758B1FFE70598019A4D
:10477000805C0699891A8870FFE7019801300190E2
:10478000E2E70699D1F80300D1F80720052363F387
:10479000C500C1F80720C1F803000699049BD1F8B1
:1047A0000300D1F8072063F30200C1F80720C1F825
:1047B00003000699039BD1F80300D1F8072003F00A
:1047C0000F0320F4707040EA8310C1F80720C1F88D
:1047D00003000699079BD1F80300D1F8072003F0E6
:1047E0000F0320F4705040EA8320C1F80720C1F87D
:1047F000030006990A9BD1F80320D1F8070063F360
:104800000900C1F80320C1F8070006990B9BD1F8F5
:104810000320D1F807006FF3DF236FF3942040EA01
:104820008320C1F80320C1F8070006990C9BD1F83A
:104830000320D1F807006FF35F5040EA4350C1F8FE
:104840000320C1F807000699089BD1F80300D1F8AE
:1048500007206FF35F236FF3963040EA8330C1F88F
:104860000720C1F803000699099BD1F80300D1F88D
:1048700007206FF3DF5040EAC350C1F80720C1F8AA
:1048800003009DED020ABDEEC00A10EE100A069963
:10489000C1F80B0007B0704784B002900191ADF8E9
:1048A0000220029828B9FFE74FF6FF70ADF80E001E
:1048B00021E0FFE70198411E0191B8B1FFE702989E
:1048C000411C029100788DF80100BDF802109DF89E
:1048D00001004840C2B247F2D650C0F6010030F89D
:1048E000120080EA1120ADF80200E3E7BDF80200F3
:1048F000ADF80E00FFE7BDF80E0004B070470000F1
:1049000083B0029001918DF80320FFE70198411ECA
:10491000019198B1FFE79DF8030002994A1C0292A9
:10492000097848408DF802009DF8021047F20430E3
:10493000C0F60100405C8DF80300E7E79DF8030036
:1049400003B0704784B002900191029890F8200063
:104950008DF803009DF80300012805D0FFE79DF8BE
:10496000030002280AD1FFE7019A0298016848690A
:104970001043486100208DF80F0008E00299486A52
:1049800040F48020486201208DF80F00FFE79DF879
:104990000F0004B07047000088B0069005910492A3
:1049A0000393069890F820008DF807000698006899
:1049B000806800900598806808B9FFE700E0FFE78D
:1049C0009DF80700012806D0FFE79DF807000228A0
:1049D00040F08D80FFE79DF80300400700280CD4CD
:1049E000FFE79DF803000007002806D4FFE79DF8C5
:1049F0000300C006002871D5FFE70098C0F30160EE
:104A000002900298032809D3FFE70699486A40F408
:104A10000000486201208DF81F0071E0029901201A
:104A20008840039908600598806868B9FFE7059891
:104A30000168C06840EA415006990968029A01EB92
:104A40000211C1F880010EE005994A688868C968BA
:104A500040EAC200084306990968029A01EB021174
:104A6000C1F88001FFE70598006906990968029A74
:104A700001EB0211C1F884010598007D01280CD1D9
:104A8000FFE706980068029900EB0111D1F8840154
:104A900040F48070C1F88401FFE7049840680699EB
:104AA0000968029A01EB0211C1F88C0104980068B0
:104AB00006990968029A01EB0211C1F8880106986B
:104AC0000068029900EB0111D1F8800140F001006B
:104AD000C1F8800100208DF81F0011E00699486A96
:104AE00040F40010486201208DF81F0008E006998C
:104AF000486A40F48020486201208DF81F00FFE7DB
:104B00009DF81F0008B0704786B004900391049888
:104B100000680190049890F820008DF803009DF83B
:104B20000300012806D0FFE79DF80300022840F0AB
:104B3000B080FFE746F20040C4F200000190019906
:104B4000D1F8000240F00100C1F800020199D1F84B
:104B5000000220F47C50C1F800020398426A0199D7
:104B6000D1F8000240EA0220C1F80002039840692F
:104B700000F01F01012088400290029A0199D1F8AB
:104B80001C029043C1F81C020398C069F0B9FFE70A
:104B9000029A0199D1F80C029043C1F80C02039AD1
:104BA0009088D168526940EA0140019901EBC20145
:104BB000C1F84002039A10889168526940EA0140A6
:104BC000019901EBC201C1F84402FFE70398C069F3
:104BD00001281ED1FFE7029A0199D1F80C02104377
:104BE000C1F80C02039A90881168526940EA0140AA
:104BF000019901EBC201C1F84002039A90899168C2
:104C0000526940EA0140019901EBC201C1F8440236
:104C1000FFE70398806940B9FFE7029A0199D1F84C
:104C200004029043C1F8040207E0029A0199D1F806
:104C300004021043C1F80402FFE70398006940B979
:104C4000FFE7029A0199D1F814029043C1F81402C7
:104C500007E0029A0199D1F814021043C1F8140236
:104C6000FFE70398006A012808D1FFE7029A01993B
:104C7000D1F81C021043C1F81C02FFE70199D1F8DA
:104C8000000220F00100C1F8000200208DF817009A
:104C900008E00499486A40F48020486201208DF8B9
:104CA0001700FFE79DF8170006B0704781B000902D
:104CB00001B0704786B0049003910292019304986A
:104CC00090F820008DF803009DF80300012806D01D
:104CD000FFE79DF80300022840F0D780FFE7039824
:104CE00080B9FFE704980068C068800748B9FFE70B
:104CF0000499486A40F40010486201208DF81700BA
:104D0000CCE00FE0049800680069800748B9FFE72D
:104D10000499486A40F40010486201208DF8170099
:104D2000BCE0FFE704980068039900EB0110D0F89D
:104D3000B00100F00400029988600298806858B9B8
:104D4000FFE704980068039900EB0110D0F8B00168
:104D5000400D029908600AE004980068039900EB8E
:104D60000110D0F8B001C00802994860FFE704982C
:104D70000068039900EB0110D0F8B00100F00200C8
:104D80000299C86004980068039900EB0110D0F8FC
:104D9000B40100F00F0002990861049800680399BB
:104DA00000EB0110D0F8B40180B2000A02998861CA
:104DB00004980068039900EB0110D0F8B401000CCE
:104DC0000299486104980068039900EB0110D0F83B
:104DD000B8010199087004980068039900EB01106C
:104DE000D0F8B801000A0199487004980068039946
:104DF00000EB0110D0F8B801000C019988700498FC
:104E00000068039900EB0110D0F8B801000E019979
:104E1000C87004980068039900EB0110D0F8BC0139
:104E20000199087104980068039900EB0110D0F80B
:104E3000BC01000A0199487104980068039900EBCD
:104E40000110D0F8BC01000C019988710498006829
:104E5000039900EB0110D0F8BC01000E0199C87154
:104E6000039838B9FFE704980168C86840F020004B
:104E7000C86006E004980168086940F020000861F5
:104E8000FFE700208DF8170008E00499486A40F415
:104E90008020486201208DF81700FFE79DF8170079
:104EA00006B0704780B58AB0099000200890099834
:104EB0000068406907900998006840680690099862
:104EC00000688068059009980068C0680490099897
:104ED00000680069039009980068806902909DF855
:104EE0001C00C007002800F09480FFE79DF8140024
:104EF000C00758B3FFE709980168012088609DF852
:104F000014008007002804D5FFE7099800F0AEFDE3
:104F10001BE09DF814004007002805D5FFE708981E
:104F200040F4006008900FE09DF81400000700288E
:104F300005D5FFE7089840F48050089003E00998F1
:104F400000F090FDFFE7FFE7FFE7FFE79DF81500A2
:104F5000C00760B3FFE7099801684FF4807088606C
:104F60009DF815008007002804D5FFE7099800F098
:104F700085FD1BE09DF815004007002805D5FFE7DB
:104F8000089840F4005008900FE09DF815000007C5
:104F9000002805D5FFE7089840F48040089003E01A
:104FA000099800F067FDFFE7FFE7FFE7FFE79DF8DF
:104FB0001600C00760B3FFE7099801684FF480301E
:104FC00088609DF816008007002804D5FFE709983F
:104FD00000F05CFD1BE09DF816004007002805D599
:104FE000FFE7089840F4004008900FE09DF8160095
:104FF0000007002805D5FFE7089840F480300890A6
:1050000003E0099800F03EFDFFE7FFE7FFE7FFE759
:10501000FFE79DF81C000007002810D5FFE79DF86A
:105020001000C006002809D5FFE7089840F400707A
:105030000890099801681020C860FFE7FFE79DF815
:105040001C00400700280FD5FFE79DF8100000075F
:10505000002808D5FFE7099801680820C86009986A
:1050600000F0CCFAFFE7FFE79DF81C00800700285E
:105070000BD5FFE709980068C068800720B1FFE7FB
:10508000099800F0BFFAFFE7FFE79DF81C00400613
:10509000002810D5FFE79DF80C00C006002809D5B0
:1050A000FFE7089840F48060089009980168102094
:1050B0000861FFE7FFE79DF81C00800600280FD578
:1050C000FFE79DF80C000007002808D5FFE70998C6
:1050D000016808200861099800F072FCFFE7FFE70B
:1050E0009DF81C00C00600280BD5FFE70998006852
:1050F0000069800720B1FFE7099800F065FCFFE731
:10510000FFE79DF81E00800700280FD5FFE79DF8F8
:105110001800C006002808D5FFE70998016810208C
:105120004860099800F054FCFFE7FFE79DF81E0077
:10513000C00778B1FFE79DF818000007002808D5E0
:10514000FFE70998016808204860099800F0A2FC70
:10515000FFE7FFE79DF81D000006002840F18D8065
:10516000FFE79DF818004007002840F18180FFE725
:105170009DF81D00C00750B1FFE79DF80800C0076B
:1051800028B1FFE7089840F001000890FFE79DF87C
:105190001D00800700280BD5FFE79DF80800800759
:1051A000002805D5FFE7089840F002000890FFE7C7
:1051B0009DF81D00400700280BD5FFE79DF808006B
:1051C0004007002805D5FFE7089840F00400089044
:1051D000FFE79DF81D000007002848D5FFE79DF870
:1051E000080010F0700F42D0FFE7029800F0700046
:1051F00001460191102814D0FFE70198202815D00E
:10520000FFE70198302816D0FFE70198402817D013
:10521000FFE70198502818D0FFE70198602819D0BF
:105220001DE0089840F00800089019E0089840F048
:105230001000089014E0089840F0200008900FE05B
:10524000089840F0400008900AE0089840F080007C
:10525000089005E0089840F48070089000E0FFE7AF
:1052600009980168886920F070008861FFE7FFE70E
:105270000998016804204860FFE7089848B1FFE7F3
:10528000089A0999486A104348620998FFF70EFD89
:10529000FFE70AB080BD000080B584B0029002989C
:1052A00020B9FFE701208DF80F00E0E0029890F8A8
:1052B000200020B9FFE7029800F0DEF8FFE702982F
:1052C0000168086840F00100086001F039F90190B8
:1052D000FFE7029800684068C007A8B9FFE701F03F
:1052E0002FF90199401A0B280DD3FFE70299486A5C
:1052F00040F4003048620299052081F82000012026
:105300008DF80F00B3E0E4E702980168086820F028
:105310000200086001F014F90190FFE702980068AC
:1053200040688007002815D5FFE701F009F90199C9
:10533000401A0B280DD3FFE70299486A40F4003069
:1053400048620299052081F8200001208DF80F00A5
:105350008DE0E3E70298007E012807D1FFE702987D
:105360000168086840F08000086006E00298016863
:10537000086820F080000860FFE70298407E01285E
:1053800007D1FFE702980168086840F04000086014
:1053900006E002980168086820F040000860FFE716
:1053A0000298807E012807D1FFE70298016808680B
:1053B00040F02000086006E002980168086820F0CC
:1053C00020000860FFE70298C07E012807D1FFE7B0
:1053D00002980168086820F01000086006E0029852
:1053E0000168086840F010000860FFE70298007F3D
:1053F000012807D1FFE702980168086840F008001B
:10540000086006E002980168086820F0080008605B
:10541000FFE70298407F012807D1FFE70298016863
:10542000086840F00400086006E002980168086817
:1054300020F004000860FFE7029B19685A6898682A
:10544000D3F80CC040EA0C00D3F810C040EA0C00BE
:105450005B691843013A1043C86102990020486211
:10546000029A012182F820108DF80F00FFE79DF8C5
:105470000F0004B080BD000080B590B00F900020F8
:105480000E900D900C900B900A900F98006846F2C9
:105490000041C4F20001884249D1FFE740F2B42044
:1054A000C2F200000168013101600068012812D1D8
:1054B000FFE7FFE70020099043F64000C4F2020036
:1054C000016841F000710160006800F0007009900F
:1054D0000998FFE7FFE7FFE70020089043F6300058
:1054E000C4F20200016841F008010160006800F0A8
:1054F000080008900898FFE703200A9002210B910A
:10550000002103910C910D9009200E9040F600406F
:10551000C4F202000AA900F01FFE039A14200490AE
:10552000052101F0EBF8049801F0DEF864E00F9833
:10553000006846F60001C4F2000188425BD1FFE733
:10554000FFE70020079043F64000C4F20200016824
:1055500041F080610160006800F08060079007986A
:10556000FFE740F2B420C2F200000168013101609F
:105570000068012812D1FFE7FFE70020069043F6FC
:105580004000C4F20200016841F00071016000684F
:1055900000F0007006900698FFE7FFE7FFE70020A5
:1055A000059043F63000C4F20200016841F00201A8
:1055B0000160006800F0020005900598FFE7602098
:1055C0000A9002200B90002001900C9003200D9077
:1055D00009200E9040F20040C4F202000AA900F037
:1055E000BBFD019A40200290052101F087F8029846
:1055F00001F07AF8FFE7FFE710B080BD81B00090BE
:1056000001B0704780B58AB00990099842F2200233
:10561000C2F2000242F21803C2F200030021FFF7B7
:1056200049FB0998006846F60001C4F2000188426F
:1056300040F0E680FFE742F22000C2F2000000687E
:10564000A0F2012001460791072800F2D7800799B0
:10565000DFE801F06C86A0BA041E385240F26041C7
:10566000C2F200010020086040F28421C2F2000171
:1056700008680130086042F22000C2F200000068B1
:10568000099942F21802C2F2000204F065F9B6E08C
:1056900040F26041C2F200010020486040F28421E3
:1056A000C2F2000148680130486042F22000C2F2B4
:1056B00000000068099942F21802C2F2000204F0E8
:1056C0004BF99CE040F26041C2F20001002088608A
:1056D00040F28421C2F2000188680130886042F201
:1056E0002000C2F200000068099942F21802C2F2DA
:1056F000000204F031F982E040F26041C2F20001A0
:105700000020C86040F28421C2F20001C868013064
:10571000C86042F22000C2F200000068099942F21B
:105720001802C2F2000204F017F968E040F260418A
:10573000C2F200010020086140F28421C2F200019F
:1057400008690130086142F22000C2F200000068DE
:10575000099942F21802C2F2000204F0FDF84EE08C
:1057600040F26041C2F200010020486140F2842111
:10577000C2F2000148690130486142F22000C2F2E1
:1057800000000068099942F21802C2F2000204F017
:10579000E3F834E040F26041C2F200010020886189
:1057A00040F28421C2F2000188690130886142F22E
:1057B0002000C2F200000068099942F21802C2F209
:1057C000000204F0C9F81AE040F26041C2F20001A0
:1057D0000020C86140F28421C2F20001C869013092
:1057E000C86142F22000C2F200000068099942F24A
:1057F0001802C2F2000204F0AFF800E0FFE7D2E0C6
:105800000998006846F20041C4F20001884240F065
:10581000C980FFE742F22000C2F200000068069053
:10582000302879D0FFE70698B0F5837F52D0FFE7A4
:10583000069840F20711884257D0FFE70698B0F566
:10584000887F53D0FFE7069840F21111884262D05A
:10585000FFE7069840F20521884240F0A180FFE76B
:1058600040F63850C2F2000005900188018142F2F2
:105870001801C2F200010B784A7842EA0322028042
:105880008B78CA7842EA032242800B794A7942EA4D
:105890000322828089798171018800EE101AB8EEA6
:1058A000C00A9FED441A80EE010A9FED431A20EED4
:1058B000010A9FED422A30EE020A80ED030AB0F998
:1058C000021000EE101AB8EEC00A20EE010A80EDB8
:1058D000040A66E042F21800C2F20000008840F2BA
:1058E0001011C2F2000108805BE05AE040F2604112
:1058F000C2F200010020086242F21801C2F2000167
:105900000868D1F8032040F28D41C2F20001C1F8CD
:105910000320086045E044E040F6DC51C2F200019B
:105920000020088042F21800C2F200000390827842
:10593000C17841EA0221ADF822100178407840EAAE
:105940000120ADF82000BDF922004FF4FA4100918A
:1059500048F20032CFF6FF7201929FED140ADFED9C
:10596000140ACDED020A0EF041F90099019ADDED1D
:10597000020A40F22C10C2F20000049080ED010AED
:10598000BDF92000B3EE0E0A0EF030F90398049929
:1059900081ED000A0279407940EA0220088100E0A6
:1059A000FFE7FFE7FFE70AB080BD00BF0000FA4352
:1059B0000000000000F8FF450000B443000034C3BD
:1059C00081B0009001B0704781B0009001B0704785
:1059D00081B0009001B0704780B584B00290029809
:1059E00090F8200001282FD1FFE70299022081F8CA
:1059F000200002980168086820F00100086000F0AB
:105A00009FFD0190FFE7029800684068C007A8B1B9
:105A1000FFE700F095FD0199401A0B280DD3FFE731
:105A20000299486A40F4003048620299052081F8E2
:105A3000200001208DF80F000FE0E4E7029900201C
:105A400048628DF80F0008E00299486A40F400208F
:105A5000486201208DF80F00FFE79DF80F0004B0A9
:105A600080BD000081B0009001B0704781B000900F
:105A700001B0704781B0009001B0704781B00090D4
:105A800001B0704781B0009001B0704781B00090C4
:105A900001B0704781B0009001B0704780B584B00C
:105AA00002900298806D019000F04AFD00900298EB
:105AB00090F8350002280DD0FFE702998020486554
:105AC000FFE70299002081F83400FFE701208DF8FC
:105AD0000F0055E002980168086820F01600086081
